:100000000C9419030C9441030C9441030C94410388
:100010000C9441030C9441030C9441030C94410350
:100020000C9441030C9441030C94A0080C940F0908
:100030000C9441030C9441030C9441030C94410330
:100040000C9441030C9441030C9441030C94410320
:100050000C9441030C9441030C9441030C94410B08
:100060000C9441030C9441030C9441030C94410300
:100070000C9441030C9441030C9441030C944103F0
:100080000C948B0B0C9441030C9441030C9441038E
:100090000C9441030C9441030C9441030C944103D0
:1000A0000C9441030C9441030C94410300000000A4
:1000B000003E5B4F5B3E3E6B4F6B3E1C3E7C3E1CEE
:1000C000183C7E3C181C577D571C1C5E7F5E1C0034
:1000D000183C1800FFE7C3E7FF0018241800FFE7EB
:1000E000DBE7FF30483A060E2629792926407F05AE
:1000F0000507407F05253F5A3CE73C5A7F3E1C1CC4
:1001000008081C1C3E7F14227F22145F5F005F5F83
:1001100006097F017F006689956A6060606060946F
:10012000A2FFA29408047E040810207E2010080874
:100130002A1C08081C2A08081E101010100C1E0C7F
:100140001E0C30383E3830060E3E0E060000000011
:100150000000005F00000007000700147F147F14F8
:10016000242A7F2A1223130864623649562050003D
:1001700008070300001C2241000041221C002A1C29
:100180007F1C2A08083E0808008070300008080814
:100190000808000060600020100804023E51494534
:1001A0003E00427F400072494949462141494D3352
:1001B0001814127F1027454545393C4A49493141B9
:1001C000211109073649494936464949291E000087
:1001D00014000000403400000008142241141414DC
:1001E0001414004122140802015909063E415D59C8
:1001F0004E7C1211127C7F494949363E41414122D1
:100200007F4141413E7F494949417F090909013EFA
:10021000414151737F0808087F00417F4100204021
:10022000413F017F081422417F404040407F021C33
:10023000027F7F0408107F3E4141413E7F0909094A
:10024000063E4151215E7F09192946264949493216
:1002500003017F01033F4040403F1F2040201F3FDC
:100260004038403F63140814630304780403615961
:10027000494D43007F4141410204081020004141A3
:10028000417F04020102044040404040000307084F
:100290000020545478407F2844443838444444284B
:1002A000384444287F385454541800087E090218F2
:1002B000A4A49C787F0804047800447D400020407A
:1002C000403D007F1028440000417F40007C0478BE
:1002D00004787C080404783844444438FC18242406
:1002E0001818242418FC7C08040408485454542486
:1002F00004043F44243C4040207C1C2040201C3C03
:100300004030403C44281028444C9090907C4464F9
:10031000544C44000836410000007700000041368C
:10032000080002010204023C2623263C1EA1A16112
:10033000123A4040207A3854545559215555794144
:100340002154547841215554784020545579400C1B
:100350001E527212395555555939545454593955FC
:100360005454580000457C410002457D420001453F
:100370007C40F0292429F0F0282528F07C545545AC
:10038000002054547C547C0A097F4932494949323F
:100390003248484832324A4848303A4141217A3A54
:1003A00042402078009DA0A07D39444444393D401E
:1003B00040403D3C24FF2424487E4943662B2FFCCB
:1003C0002F2BFF0929F620C0887E09032054547979
:1003D000410000447D413048484A32384040227A4A
:1003E000007A0A0A727D0D19317D2629292F2826C7
:1003F0002929292630484D402038080808080808CF
:100400000808382F10C8ACBA2F102834FA00007B27
:10041000000008142A142222142A1408950022002D
:1004200095AA005500AAAA55AA55AA000000FF00E7
:10043000101010FF00141414FF001010FF00FF1024
:1004400010F010F0141414FC001414F700FF000056
:10045000FF00FF1414F404FC141417101F10101FD5
:10046000101F1414141F00101010F0000000001FC3
:10047000101010101F10101010F010000000FF10CE
:100480001010101010101010FF10000000FF1400CA
:1004900000FF00FF00001F10170000FC04F41414FC
:1004A0001710171414F404F40000FF00F7141414C8
:1004B00014141414F700F7141414171410101F1048
:1004C0001F141414F4141010F010F000001F101F6B
:1004D0000000001F14000000FC140000F010F010D9
:1004E00010FF10FF141414FF141010101F00000050
:1004F00000F010FFFFFFFFFFF0F0F0F0F0FFFFFF54
:100500000000000000FFFF0F0F0F0F0F38444438AA
:10051000447C2A2A3E147E02020606027E027E02E5
:1005200063554941633844443C04407E201E200604
:10053000027E020299A5E7A5991C2A492A1C4C7241
:1005400001724C304A4D4D303048784830BC625AC8
:10055000463D3E494949007E0101017E2A2A2A2A58
:100560002A44445F444440514A444040444A514034
:100570000000FF0103E080FF000008086B6B0836F5
:1005800012362436060F090F060000181800000066
:100590001010003040FF0101001F01011E00191D55
:1005A0001712003C3C3C3C00000000008D14A1C828
:1005B00081CFD9F102AFC0A0D921D5F081FFA80029
:1005C000A800A83F080B0002020200000904000076
:1005D00001020200000524001001052401010104AC
:1005E00024020605240600010705810310004009C6
:1005F000040100020A000000070502024000000793
:100600000583024000000403090412010002EF0206
:1006100001404123368000010102030141726475EB
:10062000696E6F204C4C43004142413131303600FD
:10063000D50B11241FBECFEFDAE0DEBFCDBF12E035
:10064000A0E0B1E0E0EDFFE102C005900D92A03026
:10065000B107D9F726E0A0E0B2E001C01D92A438AE
:10066000B207E1F713E0C9E1D3E004C02197FE012E
:100670000E94E00FC831D107C9F70E94F20B0C9419
:10068000E60F0C9400002F923F924F925F926F9270
:100690007F928F929F92AF92BF92CF92DF92EF9212
:1006A000FF920F931F93CF93DF9300D000D0CDB76D
:1006B000DEB76A01E62E43E0442EA0E3B2E0F22F5B
:1006C000BB24682E969596959695E1E001FDE4E0B1
:1006D00000FDEE0F02FDE2955FEF5E9F100120949A
:1006E0003094159507951595079515950795402F05
:1006F0004F3F4CF44095941B40FC440F489FC00C66
:10070000D11CEB1C4FEF37FF0BC0620E40FE02C046
:10071000220F331FC21AD30AEB0837FDE394FF27D9
:1007200050E845030F0EA00DB11D5F1B651608F0C4
:10073000652E57E0541B591714F4952FB39450E8C5
:100740005619682F772741FC02C06619770B40FEC7
:1007500002C0660F771F1124A42EFE2E00902E02D9
:10076000D00C00902F02E01C19C05A9843E04EBDF7
:10077000C60ED71EE11C7724861509F073940CD0A1
:10078000EEBC07D0DEBC05D0CEBC03D01EBC03D06F
:100790000895C8950000C895C8950895C61AD70A47
:1007A000E108E3DFA1141CF0992371F564C0A0589F
:1007B000BF4F962C40FC0CC02EB51EBC2F9D8C90BC
:1007C000832081288D92C89500C09A94A9F711C002
:1007D0002EB51EBC2F9D9001DEDF2EB41EBC2F9CBB
:1007E00010018C9030948320832A8D92C8959A941E
:1007F00079F71124A619B1099A9509F45CC07720FC
:1008000019F00DB45A9AB1DFFD01E058FF4F962C54
:1008100040FC0EC02EB51EBC2F9D8C9082208028DF
:100820008D9280808320812881929A9499F716C0B6
:100830002EB51EBC2F9D90018C903080AEDF00C085
:100840002EB41EBC2F9C00948020822A8D9210947E
:100850003120332A319200009A9451F71124A50FC8
:10086000B11D9A9561F6BB2031F1772021F00DB4CE
:100870005A9A7BDFC89540FC0CC02EB51EBC2F9D3C
:100880008C90822080288D92C89500C06A94A9F728
:1008900012C02EB51EBC2F9D90017DDF9EB51EBCE3
:1008A0009F9D902D8C9090958922822A8D92C8953B
:1008B0006A9479F7C89511245A9A0DB40F900F9045
:1008C0000F900F90DF91CF911F910F91FF90EF90BC
:1008D000DF90CF90BF90AF909F908F907F906F9060
:1008E0005F904F903F902F900895FC0180912D02D2
:1008F000882311F13FB7F89482E08093E9002091BA
:10090000F200822F90E01816190614F481E090E0AE
:10091000882339F0289844E640932C024091F10056
:100920004083222339F02091F200211103C02BE6ED
:100930002093E8003FBF08958FEF9FEF08952FB7F2
:10094000F89483E08093E9009091E800892F807209
:1009500095FF04C09091F20080E4891B2FBF089599
:100960008091240281110DC082E08093200284E0F6
:1009700080932102109223021092220281E0809340
:10098000240280E292E00895CF93DF931F92CDB7C7
:10099000DEB76983DC01ED91FC910280F381E02DEB
:1009A00041E050E0BE016F5F7F4F09950F90DF91EE
:1009B000CF91089583E08093E9008091F20088232D
:1009C00019F08AE38093E80008950E949F0490E064
:1009D0000895CF93DF931F92CDB7DEB7FC018485D6
:1009E000958597FD08C02FEF3FEF358724870F903F
:1009F000DF91CF910895CE0101960E947504019771
:100A000019F4898190E0F3CF8FEF9FEFF0CF0F9330
:100A10001F93CF93DF931F92CDB7DEB78C01FC01FC
:100A20008485958597FF0BC0CE0101960E947504C1
:100A3000019771F4898190E0F80195878487F80126
:100A4000848595850F90DF91CF911F910F91089527
:100A50008FEF9FEFF1CFFC018485958597FD0BC04B
:100A60009FB7F89482E08093E9008091F2009FBFE5
:100A700090E0019608959FB7F89482E08093E90092
:100A80008091F2009FBF90E0089540911A0250912A
:100A90001B02209118023091190242175307B4F437
:100AA0009091E8009570E1F39091E80092FD19C0F3
:100AB0008093F10080911A0290911B0201968F732E
:100AC0009927892B19F48EEF8093E80080911A0200
:100AD00090911B02019690931B0280931A0281E071
:100AE000089580E00895DF92EF92FF920F931F9395
:100AF000CF93DF93D82E8A01EB017B01E40EF51E24
:100B0000CE15DF0559F0D7FE12C0FE0184910E9478
:100B1000450521968111F4CF0FEF1FEFC801DF913A
:100B2000CF911F910F91FF90EF90DF9008958881F2
:100B3000EECF0F931F93CF93DF931F92CDB7DEB706
:100B400082E0898342E450E064EC75E080E80E9432
:100B500073050E94B004DC0112960D911C910115E1
:100B6000110589F0D801ED91FC910280F381E02D0F
:100B7000BE016F5F7F4FC801099597FD04C0F80162
:100B800000851185ECCF89810F90DF91CF911F9166
:100B90000F910895615030F02091F100FC01208305
:100BA0000196F8CF289884E680932C02089581114D
:100BB00005C081E0611106C080E004C0813019F4F5
:100BC0006230D0F3089581E06330E0F7F5CFAF9263
:100BD000BF92CF92DF92EF92FF920F931F93CF932A
:100BE000DF936C017B018B01040F151FEB015E018C
:100BF000AE18BF08C017D10759F06991D601ED9121
:100C0000FC910190F081E02DC6010995892B79F7BF
:100C1000C501DF91CF911F910F91FF90EF90DF9071
:100C2000CF90BF90AF9008958FB18095807F669BE5
:100C300088601C9B8460089590E1282F81E061FD0D
:100C400084E060FD880F62FD8295687F969FD001E9
:100C50001124A20FA05DBD4F0C90082A40FF08266A
:100C60000C92089590910E02982329F490910F020E
:100C7000982381E009F480E008950DB407FEFDCFCC
:100C80008EB55A9A08950DB407FEFDCF8EB51EBCE1
:100C900008955A980E946106862F0E946106852F4A
:100CA0000E946106842F0C946106462F50912E02FB
:100CB000570F60912F02681F83E00E9449061EBCF7
:100CC00008958EBD00008EB50DB407FEFCCF0895CB
:100CD000FC010E940307319728F068517C4F8F4F29
:100CE0009F4FF9CFAB01FC010E9403076417750702
:100CF0008E079F07C8F3089585E090E00C9468067E
:100D00008F929F92AF92BF92CF92DF92EF92FF921B
:100D10000F931F93CF93DF936C017B018A01809126
:100D2000C501882309F45AC080912D02882309F453
:100D300055C080911F0280FF05C08091E000826055
:100D40008093E000E801B12C8AEFA82E93E0892E71
:100D50002AE3922E209711F4BB20C9F10E949F0430
:100D6000811108C0AA94AA20C9F181E090E00E94F4
:100D70006806F0CF8C171D0611F00CF08C2F9FB772
:100D8000F8948092E9002091E80025FD02C09FBF01
:100D9000E1CF282F30E0C21BD30BF701815020F0A8
:100DA00041914093F100FACFE20EF31EBB2021F0F7
:100DB0009092E800B12CEBCF8091E80085FDE7CF61
:100DC0009092E800BB24B394209709F3F3CF5D9889
:100DD00084E680931E02101611063CF081E090E03C
:100DE000F6019383828310E000E0C801DF91CF9188
:100DF0001F910F91FF90EF90DF90CF90BF90AF9039
:100E00009F908F900895A6E0B2E02FB7F8947D915F
:100E10008D919C9166B52FBFA89B05C06F3F18F4BC
:100E20007F5F8F4F9F4F22E0660F771F881F991FAC
:100E30002A95D1F708956F927F928F929F92AF92E9
:100E4000BF92CF92DF92EF92FF920F931F93CF93B7
:100E5000DF936D3081F000911002109111026A3021
:100E6000D9F41092130210921202085F1F4F1093D0
:100E700011020093100281E090E0DF91CF911F9169
:100E80000F91FF90EF90DF90CF90BF90AF909F9029
:100E90008F907F906F900895C62FE0901202F0908F
:100EA0001302D0911702609100018D2F0E94D70587
:100EB000782E60E08D2F0E94D705682E78122FC003
:100EC000672D8D2F0E94D705782E570126E0A20EA0
:100ED000B11CE701480188E0880E911CCA15DB05AA
:100EE00009F44FC0680117FF02C0D12CC12CC40106
:100EF000E1E48E16910414F080E490E0C816D9065F
:100F000064F4C038D10528F4472DB601CE010E9403
:100F10001C06FFEFCF1ADF0AEACF2196DFCF25E0CC
:100F2000C29FE0011124C455DF4F5701D12C85E049
:100F3000C12CD81629F0CE010196FE01C490EC0117
:100F4000912C812C462DC0FC472DF0E8AF16B10442
:100F500048F4B801680D791D6034710518F4C501B5
:100F60000E941C06C6942FEF821A920A88E0881607
:100F7000910441F7D394EFEFAE1ABE0AF6E0DF1208
:100F8000D6CF26E0E20EF11CF0921302E09212029C
:100F900072CFDC0130E8439FC0011124A80FB91FB4
:100FA000505530E53CBD5C985EBD20D01FD000C0E0
:100FB00080E18EBD1BD01AD019D05C9A30E73CBDC1
:100FC00080E80E90302D6111372F3C93349134918D
:100FD00002220EBC8A95A9F709D008D053954A95EC
:100FE00001F704D003D030E50DB43CBD08950E9454
:100FF000140685FF11C081E08093B5011092B601FF
:101000008091140290911502181619062CF401977C
:1010100090931502809314020E94140686FF0EC05E
:101020001092B50181E08093B601809114029091F5
:101030001502019690931502809314020895AF92C1
:10104000BF92CF92DF92EF92FF920F931F93CF93B5
:10105000DF93EC015B016901E42E842FB9010E944A
:1010600055060E944306F82E0E943D06C038D10561
:101070000CF03DC090E4A916B1040CF038C02F2D3F
:1010800030E0A9014C0F5D1F141615060CF02FC09F
:10109000E82FF0E0AF014A0D5B1D452B09F427C096
:1010A000FE2FEE27EF29F32B92E0C90ED11CE11C95
:1010B00093E001151105A1F086958695869590FD22
:1010C000880F8F9D9001219FD00CE11C309FD00C88
:1010D000E11C319FE00C209FC00CD11C1124E11CAD
:1010E00085019E016E2DA601CF010E944303DF9171
:1010F000CF911F910F91FF90EF90DF90CF90BF9015
:10110000AF9008955C98FC012591CF012EBD0000A1
:101110000DB407FEFDCF6150B1F75C9A08950895B4
:1011200090E080E00895FC0101900020E9F73197FC
:10113000AF01481B590BBC0180E896E00C94E70511
:101140001F920F920FB60F9211248F939F9380914D
:10115000E1009091E100937F9093E10083FF0FC045
:101160001092E90091E09093EB001092EC0092E372
:101170009093ED0010922D0298E09093F00082FF82
:1011800022C093E09093E9009091F200992319F026
:101190009AE39093E80090911E02992341F0909178
:1011A0001E02915090931E02911101C05D9A909180
:1011B0002C02992341F090912C02915090932C0293
:1011C000911101C0289A84FF18C08091E2008E7EA0
:1011D00081608093E2008091E1008F7E8093E10046
:1011E00080911F028E7E806180931F029F918F915C
:1011F0000F900FBE0F901F90189580FFF7CF809132
:10120000E2008E7E80618093E2008091E1008E7E1C
:101210008093E10080911F028E7E8160E5CF1F9256
:101220000F920FB60F921124CF92DF92EF92FF929E
:101230000F931F932F933F934F935F936F937F93DE
:101240008F939F93AF93BF93EF93FF93CF93DF93CE
:10125000CDB7DEB76C97DEBFCDBF1092E9008091AD
:10126000E80083FF25C068E0CE0145960E94CA05CC
:1012700082EF8093E8008D8987FF39C09091E80064
:1012800090FFFCCF982F907609F034C19E894F894A
:10129000588D2F89F88C911131C0803861F580917B
:1012A0001D028093F1001092F1008EEF8093E80010
:1012B0006C960FB6F894DEBF0FBECDBFDF91CF9115
:1012C000FF91EF91BF91AF919F918F917F916F911E
:1012D0005F914F913F912F911F910F91FF90EF9050
:1012E000DF90CF900F900FBE0F901F9018959EEF3C
:1012F0009093E800C7CF1092F100D5CF913059F408
:101300008111D3CF4130510581F680911D028D7F2F
:1013100080931D02CACF933049F48111C6CF41306A
:10132000510519F680911D028260F2CF953041F48B
:101330008091E80080FFFCCF20682093E300B5CFC8
:10134000963009F0A9C00B8D1C8D22E01092E900A7
:1013500010921B0210921A02F2122EC01092190261
:10136000109218020E9499051F8299E09983FA82CF
:1013700091E09E8390EA98879AEF998720911A02CC
:1013800030911B02275F3F4F3C832B838D8310924C
:10139000E90010921B0210921A0210931902009396
:1013A000180249E050E0BE016F5F7F4F80E00E946D
:1013B00073050E94990579CF1093190200931802C2
:1013C0000E94B004DC0112960D911C9101151105CB
:1013D00009F451C1D801ED91FC910480F581E02D13
:1013E000BE016B5E7F4FC8010995009709F03EC1B1
:1013F000F80100851185EACFF3E0FF120EC08F8956
:10140000882309F440C0823061F440E867E088E254
:1014100096E00E94A20B811148CF81E28093EB00FD
:1014200047CF813029F440E86BE08CE196E0F1CFC2
:10143000833099F70E94B004DC011296ED90FC9085
:101440008E010F5F1F4F6801E114F10479F0D7019D
:10145000ED91FC910680F781E02DB801C701099557
:10146000080F111DF701E084F184EECFD8011C9222
:10147000F60101900020E9F73197BF016C197D0951
:1014800040E0C601C6CF66E076E0FB01449150E043
:1014900080E80E94730509CF973009F4BECF9830D9
:1014A00021F481E08093F10000CF993009F0FDCE66
:1014B000837009F0B2CFEBECF1E081E031E096E32C
:1014C0002191222371F08093E9003093EB00DF013A
:1014D00011972C912093EC009093ED008F5F873053
:1014E00079F78EE78093EA001092EA008F89809363
:1014F0002D02DBCE8B8D9C8D1092E90010921B0289
:1015000010921A029093190280931802898D81110A
:1015100092C08E899D89913A49F4813209F07DCF3C
:1015200047E050E06EEB71E080E0B3CF913209F01C
:1015300074CF833269F48F89988DB0E0A0E08093F6
:10154000BA019093BB01A093BC01B093BD01ADCE95
:10155000803269F48091E80082FFFCCF67E08EEB77
:1015600091E00E94CA058BEF8093E8009ECE823204
:1015700009F09BCE8F898093C501EEEFFFE785913F
:1015800094918B3F9C4D51F1E0E0F8E08091BE01D9
:101590009091BF01A091C001B091C101803B9440E6
:1015A000A105B105F1F48091C50180FD1AC0EE3F9F
:1015B0008AE0F80789F587E797E791838083809130
:1015C000600080931C0288E19BE00FB6F894A89518
:1015D000809360000FBE9093600067CEEEEFFAE05C
:1015E000D5CF808191818737974709F05ECEA89546
:1015F0008091600088618093600080911C028093DC
:101600006000EE3F2AE0F20789F08091FE0A909197
:10161000FF0A9183808349CE808191818737980723
:1016200051F29093FF0A8093FE0AC5CF1092FF0AF1
:101630001092FE0A3ACE0E94B004DC0112960D917F
:101640001C910115110509F4E8CED801ED91FC912A
:101650000190F081E02DBE016B5E7F4FC8010995BE
:10166000811123CEF80100851185EBCF18161906DC
:101670000CF41BCED2CEF1E0FF12BECE6AE076E0D3
:1016800004CF0F920FB68F939F93EF93FF938091A8
:1016900001028D5F8D3708F08D5780930102E2E0E3
:1016A000F2E080818E4F808391819F4F9183828170
:1016B0008F4F828383818F4F8383E6E0F2E08081C6
:1016C0008F5F808381818F4F818382818F4F82835F
:1016D00083818F4F83838FB18F6066991C9B88278E
:1016E0008F3681F480910002981B963068F0E0E01C
:1016F000F8E087E78083818388E180936000F0933E
:101700006000FFCF90930002FF91EF919F918F9126
:101710000FBE0F9018951F920F920FB60F921124C3
:101720008F939F9387E49AE0909399008093980019
:1017300081E080930C029F918F910F900FBE0F90CC
:101740001F901895EF92FF920F931F93CF93DF9303
:10175000F82E192FE62E042F81E0860F880F0E94A5
:10176000450583E00E944505CF2DD12FEC0EFD2EBF
:10177000F11CCE15DF05B9F007FF13C0FE018491FF
:101780000E944505182F80E00E944505812321967F
:101790008111EFCFDF91CF911F910F91FF90EF90CB
:1017A00008958881EDCF81E0F5CFE0E3F6E0138284
:1017B000128288EE93E0A0E0B0E084839583A68354
:1017C000B78385ED91E0918380838FEF9FEF9587BD
:1017D0008487E0E8F6E01382128287EE91E091833D
:1017E00080830895CDB7DEB7A197DEBFCDBF7894D3
:1017F00083E084BD83E085BD81E080936E00E1E8F5
:10180000F0E083E08083E0E881E08083E1E983E049
:101810008083E0E981E08083E1EC87E08083E3EC92
:1018200081E08083E0EC82E08083E2EC81E08083F1
:10183000EAE787E080838068808310922D0210920F
:101840001D0210921F028091D70081608093D70003
:1018500080EA8093D80089B5806189BD89B58260AE
:1018600089BD09B400FEFDCF81E090E00E946806CA
:101870008091D8008F7C80618093D8008091E000B7
:10188000807F8093E0008091E1008E7E8093E10074
:101890008DE08093E200559A209A81EC80937C0041
:1018A00081E785B987E684B985E38BB98FE38AB987
:1018B000769A6E9880EF81BB10BA80E58CBD81E08E
:1018C0008DBD0E947C06599A0E947C065C98ECEAC9
:1018D000F5E085918EBD00000DB407FEFDCFE63B1F
:1018E000C1F75C9A81E88093640081E08093650091
:1018F0006AE086EB95E00E9482082FB7F89487E4AF
:101900009AE0909399008093980093E090939000D0
:101910008BE1809391001092950010929400809139
:1019200071008260809371002FBF909300015B9AD9
:10193000E4E1F0E08DE29DEF60EF7FEF25913591DE
:10194000559145912851354909F4CA0180932E02D9
:1019500090932F0225913591559145912851354904
:1019600009F4BA0160930A0270930B025A988BEA49
:101970000E9461065A9A2EEA222E22EE322E44242A
:1019800043945524539493E0C92E5B98F894809126
:101990000C02811109C083B7816083BF7894889558
:1019A00083B78E7F83BFF2CF10920C027894109190
:1019B00017022FE741E050E061E070E080EB95E036
:1019C0000E94C90762E082EC95E00E9482082FEF36
:1019D00047E051E061E070E080E392E00E94C907D7
:1019E00062E080EC95E00E94820881E0112331F0F2
:1019F00080910D028F5F80930D0280E0809317022B
:101A00005B9A80910D028823B1F0815080930D0282
:101A100080910F0280930E020E94140680930F02A1
:101A200080911602813059F1D8F0823009F454C007
:101A3000843009F4B7C0D0901702DD0C80911602F3
:101A4000813009F4CBC008F4BDC0823009F4DDC098
:101A500020E030E0232B09F498CF0E94000091CFC2
:101A60008091010190910201009731F001979093CC
:101A7000020180930101DFCF50921602DCCF0E9459
:101A8000140683FF1CC003E011E0F12CF801F08282
:101A90000E94FD0E2AEF30E040E050E00E94550F1A
:101AA000F80174876387F0E4FF0E025F1F4F2BEA93
:101AB00031E02017310751F782E0809316020E942F
:101AC000140682FFB8CF4BE450E0509302014093DC
:101AD000010110921602AFCF0E9414062091B301AB
:101AE0003091B4018091B20160911702660F70E0ED
:101AF0008C9D600D711D1124C9010E94B80F892BA6
:101B000049F48091B1019091B0018917D0F58F5FB0
:101B10008093B1012F5F3F4F3093B4012093B30105
:101B20000E94F7079091B5018091B801992341F087
:101B3000811106C02092AD013092AE014092AF01FA
:101B40002091B601222309F4F2C081111DC080EB5F
:101B500092E4A2E08093AD019093AE01A093AF0117
:101B60000E94F70788E00E943206882309F463CFB9
:101B70008091B80181115FCF1092B1015092B801EC
:101B80005ACF1092B101C6CF9111D7C024EA32E9E1
:101B900040E02093AD013093AE014093AF0181113D
:101BA000D7C0DECF88E00E94320681115092160223
:101BB00084E00E943206882309F43DCF82E08093BE
:101BC000160239CF0D2D10E024E33AEA42E070E02E
:101BD00060E090E080E00E941F083ACF32E03D15BF
:101BE00008F436CF40E250E05093130240931202C3
:101BF00050931102409310028FEE91E00E949308DF
:101C00008DEF91E00E94930823CF83E0A82E81E01E
:101C1000B82E712C612C8D2C912CE0901402F09038
:101C20001502F501868184018C9D000D111D112482
:101C3000228133814481618170E0C3018E199F0943
:101C40000E941F08F0E46F0E711C2EE0A20EB11C62
:101C5000611433E0730609F71092AB011092AC01E6
:101C600087E08093B0018091B10184018C9D000DCB
:101C7000111D11242091AD013091AE014091AF01B1
:101C800070E060E090E080E00E941F0842E04D15A7
:101C900008F4DECE1092130210921202109211027A
:101CA000109210024701FF0CAA08BB08B7FE27C01C
:101CB0006DE280E896E00E941B0722273327A901E6
:101CC000281939094A095B0919A28E010F5D1F4FB6
:101CD000CA01B9012AE030E040E050E00E94870FDD
:101CE000605DF80162938F012115310541055105B1
:101CF00079F70115110509F483CFC8017FCFA5013C
:101D0000940119A28E010F5D1F4FCA01B9012AE08B
:101D100030E040E050E00E94870F605DF801629380
:101D20008F01211531054105510579F7E2CF99233E
:101D300009F435CF882309F413CF42EA52E360E077
:101D40004093AD015093AE016093AF0121111ECFBE
:101D50009091B1018091B001981302CF1092B80117
:101D6000FFCE8F929F92AF92BF92CF92DF92EF926F
:101D7000FF92CF93DF93EC01688179818A819B8107
:101D8000611571058105910521F464E279ED8BE51A
:101D900097E02DE133EF41E050E00E94550F4901FB
:101DA0005A019B01AC01A7EAB1E40E94740F6B01D8
:101DB0007C01ACEEB4EFA50194010E94820FC60E27
:101DC000D71EE81EF91EF7FE06C081E0C81AD1082A
:101DD000E10880E8F80AC882D982EA82FB82C7015A
:101DE000B6019F77DF91CF91FF90EF90DF90CF907A
:101DF000BF90AF909F908F9008958F929F92AF92D7
:101E0000BF92CF92DF92EF92FF926091C6017091E4
:101E1000C7018091C8019091C901611571058105C3
:101E2000910521F464E279ED8BE597E02DE133EF44
:101E300041E050E00E94550F49015A019B01AC015D
:101E4000A7EAB1E40E94740F6B017C01ACEEB4EF21
:101E5000A50194010E94820FC60ED71EE81EF91E2E
:101E6000F7FE06C081E0C81AD108E10880E8F80A48
:101E7000C092C601D092C701E092C801F092C90198
:101E8000C701B6019F77FF90EF90DF90CF90BF9092
:101E9000AF909F908F9008956093C6017093C70193
:101EA0008093C8019093C9010895052E97FB1EF4F5
:101EB00000940E946C0F57FD07D00E94870F07FC0B
:101EC00003D04EF40C946C0F5095409530952195AD
:101ED0003F4F4F4F5F4F0895909580957095619556
:101EE0007F4F8F4F9F4F08950E94A90FA59F900D80
:101EF000B49F900DA49F800D911D11240895B7FFEC
:101F00000C94740F0E94740F821B930B0895A1E22E
:101F10001A2EAA1BBB1BFD010DC0AA1FBB1FEE1F63
:101F2000FF1FA217B307E407F50720F0A21BB30BAE
:101F3000E40BF50B661F771F881F991F1A9469F72A
:101F400060957095809590959B01AC01BD01CF0186
:101F50000895A29FB001B39FC001A39F700D811D82
:101F60001124911DB29F700D811D1124911D0895A2
:101F700097FB072E16F4009407D077FD09D00E9436
:101F8000CC0F07FC05D03EF4909581959F4F0895A6
:101F9000709561957F4F0895AA1BBB1B51E107C047
:101FA000AA1FBB1FA617B70710F0A61BB70B881FE9
:101FB000991F5A95A9F780959095BC01CD01089578
:101FC000EE0FFF1F0590F491E02D0994F894FFCFD8
:101FD000014B0000000000000700020100000000AB
:101FE00000000000000007000201000000000000E7
:101FF00000000000070002010000000000000000D7
:1020000000000700020100000000000000000000C6
:1020100007000201000000000000000000000700AF
:1020200002010000000000000000000007000201A3
:102030000000000000000000000007000201000096
:102040000000000000000000070002010000000086
:102050000000000000000700020100000000000076
:102060000000000007000201000000000000000066
:1020700000000700020100000000002000B0420242
:1020800007000200000100000100FFFFFFFF00E168
:102090000000000000000100000000C1808100007D
:1020A0000000000000C4048006E504DA042B05E902
:1020B000040705000000001B07E70590088F084291
:1020C000616E616E6120526561706572000D0A007B
:00000001FF
