:020000040000FA
:100000000C941A030C9442030C9442030C94420384
:100010000C9442030C9442030C9442030C9442034C
:100020000C9442030C9442030C940F080C947E0829
:100030000C9442030C9442030C9442030C9442032C
:100040000C9442030C9442030C9442030C9442031C
:100050000C9442030C9442030C9442030C94B00A97
:100060000C9442030C9442030C9442030C944203FC
:100070000C9442030C9442030C9442030C944203EC
:100080000C94FA0A0C9442030C9442030C9442031D
:100090000C9442030C9442030C9442030C944203CC
:1000A0000C9442030C9442030C94420300000000A1
:1000B000003E5B4F5B3E3E6B4F6B3E1C3E7C3E1CEE
:1000C000183C7E3C181C577D571C1C5E7F5E1C0034
:1000D000183C1800FFE7C3E7FF0018241800FFE7EB
:1000E000DBE7FF30483A060E2629792926407F05AE
:1000F0000507407F05253F5A3CE73C5A7F3E1C1CC4
:1001000008081C1C3E7F14227F22145F5F005F5F83
:1001100006097F017F006689956A6060606060946F
:10012000A2FFA29408047E040810207E2010080874
:100130002A1C08081C2A08081E101010100C1E0C7F
:100140001E0C30383E3830060E3E0E060000000011
:100150000000005F00000007000700147F147F14F8
:10016000242A7F2A1223130864623649562050003D
:1001700008070300001C2241000041221C002A1C29
:100180007F1C2A08083E0808008070300008080814
:100190000808000060600020100804023E51494534
:1001A0003E00427F400072494949462141494D3352
:1001B0001814127F1027454545393C4A49493141B9
:1001C000211109073649494936464949291E000087
:1001D00014000000403400000008142241141414DC
:1001E0001414004122140802015909063E415D59C8
:1001F0004E7C1211127C7F494949363E41414122D1
:100200007F4141413E7F494949417F090909013EFA
:10021000414151737F0808087F00417F4100204021
:10022000413F017F081422417F404040407F021C33
:10023000027F7F0408107F3E4141413E7F0909094A
:10024000063E4151215E7F09192946264949493216
:1002500003017F01033F4040403F1F2040201F3FDC
:100260004038403F63140814630304780403615961
:10027000494D43007F4141410204081020004141A3
:10028000417F04020102044040404040000307084F
:100290000020545478407F2844443838444444284B
:1002A000384444287F385454541800087E090218F2
:1002B000A4A49C787F0804047800447D400020407A
:1002C000403D007F1028440000417F40007C0478BE
:1002D00004787C080404783844444438FC18242406
:1002E0001818242418FC7C08040408485454542486
:1002F00004043F44243C4040207C1C2040201C3C03
:100300004030403C44281028444C9090907C4464F9
:10031000544C44000836410000007700000041368C
:10032000080002010204023C2623263C1EA1A16112
:10033000123A4040207A3854545559215555794144
:100340002154547841215554784020545579400C1B
:100350001E527212395555555939545454593955FC
:100360005454580000457C410002457D420001453F
:100370007C40F0292429F0F0282528F07C545545AC
:10038000002054547C547C0A097F4932494949323F
:100390003248484832324A4848303A4141217A3A54
:1003A00042402078009DA0A07D39444444393D401E
:1003B00040403D3C24FF2424487E4943662B2FFCCB
:1003C0002F2BFF0929F620C0887E09032054547979
:1003D000410000447D413048484A32384040227A4A
:1003E000007A0A0A727D0D19317D2629292F2826C7
:1003F0002929292630484D402038080808080808CF
:100400000808382F10C8ACBA2F102834FA00007B27
:10041000000008142A142222142A1408950022002D
:1004200095AA005500AAAA55AA55AA000000FF00E7
:10043000101010FF00141414FF001010FF00FF1024
:1004400010F010F0141414FC001414F700FF000056
:10045000FF00FF1414F404FC141417101F10101FD5
:10046000101F1414141F00101010F0000000001FC3
:10047000101010101F10101010F010000000FF10CE
:100480001010101010101010FF10000000FF1400CA
:1004900000FF00FF00001F10170000FC04F41414FC
:1004A0001710171414F404F40000FF00F7141414C8
:1004B00014141414F700F7141414171410101F1048
:1004C0001F141414F4141010F010F000001F101F6B
:1004D0000000001F14000000FC140000F010F010D9
:1004E00010FF10FF141414FF141010101F00000050
:1004F00000F010FFFFFFFFFFF0F0F0F0F0FFFFFF54
:100500000000000000FFFF0F0F0F0F0F38444438AA
:10051000447C2A2A3E147E02020606027E027E02E5
:1005200063554941633844443C04407E201E200604
:10053000027E020299A5E7A5991C2A492A1C4C7241
:1005400001724C304A4D4D303048784830BC625AC8
:10055000463D3E494949007E0101017E2A2A2A2A58
:100560002A44445F444440514A444040444A514034
:100570000000FF0103E080FF000008086B6B0836F5
:1005800012362436060F090F060000181800000066
:100590001010003040FF0101001F01011E00191D55
:1005A0001712003C3C3C3C0000000000D5F08D14CC
:1005B000A1C881CFD9F1AF2000C0A0D92181FFA867
:1005C00000A800A83F080B00020202000009040076
:1005D00000010202000005240010010524010101B0
:1005E00004240206052406000107058103100040CB
:1005F00009040100020A0000000705020240000091
:10060000070583024000000403090412010002EF01
:10061000020140412336800001010203014172645E
:1006200075696E6F204C4C430041726475626F793E
:100630000000440B11241FBECFEFDAE0DEBFCDBFB8
:1006400011E0A0E0B1E0EAE0FBE102C005900D920C
:10065000A435B107D9F725E0A4E5B1E001C01D92AA
:10066000A63DB207E1F713E0CAE1D3E004C0219749
:10067000FE010E947D0DC931D107C9F70E94610BAF
:100680000C94830D0C9400002F923F924F925F9236
:100690006F927F928F929F92AF92BF92CF92DF9292
:1006A000EF92FF920F931F93CF93DF9300D01F928F
:1006B000CDB7DEB79A01462FA2E8B1E070E060E066
:1006C0006B01F3E0E62FBB24682E969596959695E0
:1006D00051E0C1FC54E0C0FC550FC2FC52951FEF25
:1006E000159F200140945094D594C794D594C794F5
:1006F000D594C7940C2D0F3F4CF40095901BF0FD42
:10070000000F089F200D311D4B1D0FEF77FF0BC011
:10071000660EF0FF02C0660F771F261B370B4B09D2
:1007200077FD4395EE2710E801030E0EA00DB11DD5
:100730001E1B611608F0612E17E0101B191714F428
:10074000912FB39410E81619282E3324F1FD02C01E
:1007500026183308F0FF02C0220C331C1124F12E9E
:10076000A02E13E000908001300D00908101401D0B
:1007700019C0729803E00EBD220D331D411D772470
:10078000861509F073940CD04EBD07D03EBD05D040
:100790002EBD03D01EBC03D00895C8950000C89597
:1007A000C8950895221933094109E3DFA1141CF00B
:1007B000992371F564C0A058BF4F962C10FD0CC052
:1007C0006EB51EBC659F8C90852081288D92C89542
:1007D00000C09A94A9F711C06EB51EBC659FB00108
:1007E000DEDF4EB41EBC459E20018C9050948520C7
:1007F000872A8D92C8959A9479F71124A619B10980
:100800009A9509F45CC0772019F00DB4729AB1DFA3
:10081000FD01E058FF4F962C10FD0EC06EB51EBCBA
:10082000659F8C90842080288D92808085208128EF
:1008300081929A9499F716C06EB51EBC659FB0015F
:100840008C905080AEDF00C04EB41EBC459E00941C
:100850008020862A8D9210945120572A51920000B0
:100860009A9451F71124AF0DB11D9A9561F6BB20F2
:1008700031F1772021F00DB4729A7BDFC89510FD1D
:100880000CC06EB51EBC659F8C90842080288D9214
:10089000C89500C06A94A9F712C06EB51EBC659FCA
:1008A000B0017DDF9EB51EBC959F902D8C909095DC
:1008B0008922862A8D92C8956A9479F7C895112461
:1008C000729A0DB40F900F900F90DF91CF911F91FE
:1008D0000F91FF90EF90DF90CF90BF90AF909F90DF
:1008E0008F907F906F905F904F903F902F900895E2
:1008F0000F931F93F62FE82F93E001151105A1F038
:1009000066956695669590FD660F689FD001A19FDC
:10091000300D411DB09F300D411DB19F400DA09F76
:10092000200D311D1124411D642FA901CF011F91FC
:100930000F910C944403FC0180917F01882311F1F5
:100940003FB7F89482E08093E9002091F200822F73
:1009500090E01816190614F481E090E0882339F02D
:10096000289844E640937E014091F1004083222381
:1009700039F02091F200211103C02BE62093E8000A
:100980003FBF08958FEF9FEF08952FB7F89483E04E
:100990008093E9009091E800892F807295FF04C050
:1009A0009091F20080E4891B2FBF08958091760119
:1009B00081110DC082E08093720184E08093730105
:1009C000109275011092740181E08093760182E7A4
:1009D00091E00895CF93DF931F92CDB7DEB769837F
:1009E000DC01ED91FC910280F381E02D41E050E0CB
:1009F000BE016F5F7F4F09950F90DF91CF910895F2
:100A000083E08093E9008091F200882319F08AE363
:100A10008093E80008950E94C50490E00895CF9364
:100A2000DF931F92CDB7DEB7FC018485958597FDD6
:100A300008C02FEF3FEF358724870F90DF91CF91CC
:100A40000895CE0101960E949B04019719F48981B3
:100A500090E0F3CF8FEF9FEFF0CF0F931F93CF93E3
:100A6000DF931F92CDB7DEB78C01FC01848595859D
:100A700097FF0BC0CE0101960E949B04019771F471
:100A8000898190E0F80195878487F80184859585B0
:100A90000F90DF91CF911F910F9108958FEF9FEFEE
:100AA000F1CFFC018485958597FD0BC09FB7F89425
:100AB00082E08093E9008091F2009FBF90E0019670
:100AC00008959FB7F89482E08093E9008091F20046
:100AD0009FBF90E0089540916C0150916D0120916D
:100AE0006A0130916B0142175307B4F49091E8000A
:100AF0009570E1F39091E80092FD19C08093F100A8
:100B000080916C0190916D0101968F739927892BCB
:100B100019F48EEF8093E80080916C0190916D0143
:100B2000019690936D0180936C0181E0089580E0BF
:100B30000895DF92EF92FF920F931F93CF93DF936D
:100B4000D82E8A01EB017B01E40EF51ECE15DF05E0
:100B500059F0D7FE12C0FE0184910E946B052196C8
:100B60008111F4CF0FEF1FEFC801DF91CF911F91DB
:100B70000F91FF90EF90DF9008958881EECF0F9353
:100B80001F93CF93DF931F92CDB7DEB782E08983A7
:100B900042E450E065EC75E080E80E9499050E940F
:100BA000D604DC0112960D911C910115110589F0F6
:100BB000D801ED91FC910280F381E02DBE016F5FC1
:100BC0007F4FC801099597FD04C0F8010085118584
:100BD000ECCF89810F90DF91CF911F910F910895F4
:100BE000615030F02091F100FC0120830196F8CF94
:100BF000289884E680937E010895811105C081E0E4
:100C0000611106C080E004C0813019F46230D0F375
:100C1000089581E06330E0F7F5CFAF92BF92CF92B5
:100C2000DF92EF92FF920F931F93CF93DF936C01AC
:100C30007B018B01040F151FEB015E01AE18BF088D
:100C4000C017D10759F06991D601ED91FC9101903F
:100C5000F081E02DC6010995892B79F7C501DF9157
:100C6000CF911F910F91FF90EF90DF90CF90BF90A9
:100C7000AF9008958FB18095807F669B88601C9BA4
:100C80008460089590E1282F81E061FD84E060FD9B
:100C9000880F62FD8295687F969FD0011124A20F74
:100CA000AE57BE4F0C90082A40FF08260C920895BC
:100CB0000DB407FEFDCF8EB5729A08950DB407FEF0
:100CC000FDCF8EB51EBC089572980E947C06862FBB
:100CD0000E947C06852F0E947C06842F0C947C0643
:100CE000462F50918001570F60918101681F83E06A
:100CF0000E9464061EBC08958EBD00008EB50DB422
:100D000007FEFCCF0895FC010E941E07319728F0D2
:100D100068517C4F8F4F9F4FF9CFAB01FC010E9470
:100D20001E07641775078E079F07C8F3089585E0AF
:100D300090E00C9483068F929F92AF92BF92CF92D5
:100D4000DF92EF92FF920F931F93CF93DF936C018B
:100D50007B018A0180911D01882309F45AC080918A
:100D60007F01882309F455C08091710180FF05C07F
:100D70008091E00082608093E000E801B12C8AEF6E
:100D8000A82E93E0892E2AE3922E209711F4BB20FF
:100D9000C9F10E94C504811108C0AA94AA20C9F112
:100DA00081E090E00E948306F0CF8C171D0611F0C1
:100DB0000CF08C2F9FB7F8948092E9002091E80006
:100DC00025FD02C09FBFE1CF282F30E0C21BD30B0F
:100DD000F701815020F041914093F100FACFE20EEB
:100DE000F31EBB2021F09092E800B12CEBCF809154
:100DF000E80085FDE7CF9092E800BB24B3942097EC
:100E000009F3F3CF5D9884E6809370011016110604
:100E10003CF081E090E0F6019383828310E000E0F3
:100E2000C801DF91CF911F910F91FF90EF90DF905C
:100E3000CF90BF90AF909F908F900895AAE5B1E0BA
:100E40002FB7F8947D918D919C9166B52FBFA89B8B
:100E500005C06F3F18F47F5F8F4F9F4F22E0660FF2
:100E6000771F881F991F2A95D1F708956F927F9257
:100E70008F929F92AF92BF92CF92DF92EF92FF92AA
:100E80000F931F93CF93DF936D3081F00091640136
:100E9000109165016A30D9F41092670110926601D1
:100EA000085F1F4F109365010093640181E090E09B
:100EB000DF91CF911F910F91FF90EF90DF90CF9036
:100EC000BF90AF909F908F907F906F900895C62FA6
:100ED000E0906601F0906701D09169016091000196
:100EE0008D2F0E94FD05782E60E08D2F0E94FD055C
:100EF000682E78122FC0672D8D2F0E94FD05782E49
:100F0000570126E0A20EB11CE701480188E0880ED7
:100F1000911CCA15DB0509F44FC0680117FF02C018
:100F2000D12CC12CC401E1E48E16910414F080E4AC
:100F300090E0C816D90664F4C038D10528F4472DCE
:100F4000B601CE010E944206FFEFCF1ADF0AEACFB8
:100F50002196DFCF25E0C29FE0011124C455DF4F69
:100F60005701D12C85E0C12CD81629F0CE0101966D
:100F7000FE01C490EC01912C812C462DC0FC472D24
:100F8000F0E8AF16B10448F4B801680D791D60347B
:100F9000710518F4C5010E944206C6942FEF821A0B
:100FA000920A88E08816910441F7D394EFEFAE1AC5
:100FB000BE0AF6E0DF12D6CF26E0E20EF11CF09278
:100FC0006701E092660172CF30E73CBDDC0130E89A
:100FD000439FC0011124A80FB91F5E91352F6111E5
:100FE000372F3C93C89500C052235EBD0197A9F7E7
:100FF00004D003D030E50DB43CBD08955C98FC01ED
:101000002591CF012EBD00000DB407FEFDCF61502C
:10101000B1F75C9A0895089590E080E008951F92DA
:101020000F920FB60F9211248F939F938091E1003E
:101030009091E100937F9093E10083FF0FC01092A5
:10104000E90091E09093EB001092EC0092E3909312
:10105000ED0010927F0198E09093F00082FF22C093
:1010600093E09093E9009091F200992319F09AE3AC
:101070009093E80090917001992341F09091700154
:10108000915090937001911101C05D9A90917E01F1
:10109000992341F090917E01915090937E0191119E
:1010A00001C0289A84FF18C08091E2008E7E816082
:1010B0008093E2008091E1008F7E8093E100809137
:1010C00071018E7E8061809371019F918F910F904D
:1010D0000FBE0F901F90189580FFF7CF8091E20010
:1010E0008E7E80618093E2008091E1008E7E80930D
:1010F000E100809171018E7E8160E5CF1F920F9299
:101100000FB60F921124CF92DF92EF92FF920F93BE
:101110001F932F933F934F935F936F937F938F937F
:101120009F93AF93BF93EF93FF93CF93DF93CDB78D
:10113000DEB76C97DEBFCDBF1092E9008091E8006A
:1011400083FF25C068E0CE0145960E94F00582EF3E
:101150008093E8008D8987FF39C09091E80090FF67
:10116000FCCF982F907609F034C19E894F89588D15
:101170002F89F88C911131C0803861F580916F0111
:101180008093F1001092F1008EEF8093E8006C964E
:101190000FB6F894DEBF0FBECDBFDF91CF91FF91A8
:1011A000EF91BF91AF919F918F917F916F915F91DF
:1011B0004F913F912F911F910F91FF90EF90DF90F2
:1011C000CF900F900FBE0F901F9018959EEF9093A9
:1011D000E800C7CF1092F100D5CF913059F48111BA
:1011E000D3CF4130510581F680916F018D7F80937F
:1011F0006F01CACF933049F48111C6CF41305105F8
:1012000019F680916F018260F2CF953041F48091A0
:10121000E80080FFFCCF20682093E300B5CF963034
:1012200009F0A9C00B8D1C8D22E01092E9001092EC
:101230006D0110926C01F2122EC010926B0110928F
:101240006A010E94BF051F8299E09983FA8291E0AA
:101250009E8390EA98879AEF998720916C0130914C
:101260006D01275F3F4F3C832B838D831092E900F4
:1012700010926D0110926C0110936B0100936A0142
:1012800049E050E0BE016F5F7F4F80E00E9499050A
:101290000E94BF0579CF10936B0100936A010E94F1
:1012A000D604DC0112960D911C910115110509F46B
:1012B00051C1D801ED91FC910480F581E02DBE0172
:1012C0006B5E7F4FC8010995009709F03EC1F80198
:1012D00000851185EACFF3E0FF120EC08F898823C5
:1012E00009F440C0823061F440E867E089E296E0AA
:1012F0000E94110B811148CF81E28093EB0047CF10
:10130000813029F440E86BE08DE196E0F1CF833045
:1013100099F70E94D604DC011296ED90FC908E01A4
:101320000F5F1F4F6801E114F10479F0D701ED91CF
:10133000FC910680F781E02DB801C7010995080FDF
:10134000111DF701E084F184EECFD8011C92F60163
:1013500001900020E9F73197BF016C197D0940E049
:10136000C601C6CF67E076E0FB01449150E080E81B
:101370000E94990509CF973009F4BECF983021F427
:1013800081E08093F10000CF993009F0FDCE8370A9
:1013900009F0B2CFEFE1F1E081E031E096E3219195
:1013A000222371F08093E9003093EB00DF01119765
:1013B0002C912093EC009093ED008F5F873079F7AC
:1013C0008EE78093EA001092EA008F8980937F0174
:1013D000DBCE8B8D9C8D1092E90010926D011092E6
:1013E0006C0190936B0180936A01898D811192C089
:1013F0008E899D89913A49F4813209F07DCF47E089
:1014000050E066E171E080E0B3CF913209F074CF33
:10141000833269F48F89988DB0E0A0E08093120147
:1014200090931301A0931401B0931501ADCE8032B7
:1014300069F48091E80082FFFCCF67E086E191E0EB
:101440000E94F0058BEF8093E8009ECE823209F077
:101450009BCE8F8980931D01EEEFFFE785919491DC
:101460008B3F9C4D51F1E0E0F8E0809116019091A6
:101470001701A0911801B0911901803B9440A1057A
:10148000B105F1F480911D0180FD1AC0EE3F8AE0A4
:10149000F80789F587E797E791838083809160005B
:1014A00080936E0188E19BE00FB6F894A895809335
:1014B00060000FBE9093600067CEEEEFFAE0D5CFEC
:1014C000808191818737974709F05ECEA8958091FA
:1014D000600088618093600080916E01809360005D
:1014E000EE3F2AE0F20789F08091FE0A9091FF0A10
:1014F0009183808349CE808191818737980751F20B
:101500009093FF0A8093FE0AC5CF1092FF0A1092B3
:10151000FE0A3ACE0E94D604DC0112960D911C916F
:101520000115110509F4E8CED801ED91FC91019067
:10153000F081E02DBE016B5E7F4FC80109958111DE
:1015400023CEF80100851185EBCF181619060CF48F
:101550001BCED2CEF1E0FF12BECE6BE076E004CF20
:101560000F920FB68F939F93EF93FF938091550146
:101570008D5F8D3708F08D5780935501E6E5F1E0DA
:1015800080818E4F808391819F4F918382818F4F85
:10159000828383818F4F8383EAE5F1E080818F5FCF
:1015A000808381818F4F818382818F4F828383816A
:1015B0008F4F83838FB18F6066991C9B88278F36EE
:1015C00081F480915401981B963068F0E0E0F8E0D7
:1015D00087E78083818388E180936000F0936000D7
:1015E000FFCF90935401FF91EF919F918F910FBE88
:1015F0000F9018951F920F920FB60F9211248F9390
:101600009F9382E496E0909399008093980081E004
:10161000809360019F918F910F900FBE0F901F904C
:101620001895EF92FF920F931F93CF93DF93F82EAD
:10163000192FE62E042F81E0860F880F0E946B057C
:1016400083E00E946B05CF2DD12FEC0EFD2EF11CF7
:10165000CE15DF05B9F007FF13C0FE0184910E948B
:101660006B05182F80E00E946B0581232196811164
:10167000EFCFDF91CF911F910F91FF90EF900895E1
:101680008881EDCF81E0F5CFE2E8F5E013821282A8
:1016900088EE93E0A0E0B0E084839583A683B783CF
:1016A00089E291E0918380838FEF9FEF9587848714
:1016B000E2EDF5E0138212828BE391E09183808367
:1016C0000895789483E084BD83E085BD81E08093B4
:1016D0006E00E1E8F0E083E08083E0E881E0808371
:1016E000E1E983E08083E0E981E08083E1EC87E069
:1016F0008083E3EC81E08083E0EC82E08083E2ECB5
:1017000081E08083EAE787E08083806880831092AD
:101710007F0110926F01109271018091D70081605A
:101720008093D70080EA8093D80089B5806189BD15
:1017300089B5826089BD09B400FEFDCF81E090E0EB
:101740000E9483068091D8008F7C80618093D800AE
:101750008091E000807F8093E0008091E1008E7EA8
:101760008093E1008DE08093E200559A209A81EC0D
:1017700080937C0081EF85B987EE84B984E38BB9CF
:1017800084EF8AB9769A6E9880EF81BB10BA80E5B3
:101790008CBD81E08DBD0E9497065F9A0E949706DE
:1017A0005C98ECEAF5E085918EBD00000DB407FE73
:1017B000FDCFE93BC1F75C9A81E88093640081E04A
:1017C0008093650068E089EB95E00E94FE072FB7E3
:1017D000F89482E496E0909399008093980093E0C7
:1017E000909390008BE1809391001092950010925D
:1017F0009400809171008260809371002FBF90935C
:1018000000015E9AE4E1F0E08DE29DEF60EF7FEF92
:1018100025913591559145912851354909F4CA01D1
:101820008093800190938101259135915591459147
:101830002851354909F4BA0160935E0170935F0144
:1018400072988BEA0E947C06729AC3E080E0C82EF0
:1018500080E0D82E9BE4A92EB12CD1E020E2E22E2C
:10186000F12C30EB632E32E4732E32E0832E47E00E
:10187000542E5E98F89480916001811109C083B75D
:10188000816083BF7894889583B78E7F83BFF2CFC2
:10189000109260017894109169012FE741E050E0C7
:1018A00061E070E082E095E00E94E40762E083EC92
:1018B00095E00E94FE072FEF47E051E061E070E005
:1018C00082E891E00E94E40762E081EC95E00E94EA
:1018D000FE078EEF810F1F5F8E3F30F48091610114
:1018E0008F5F8093610110E0109369015E9A80918F
:1018F00061018823A9F081508093610110916201F8
:10190000109363010E943A068093620190916801EE
:10191000913041F1C0F09230B9F1943009F45CC0DB
:101920000091690180916801813009F47BC008F45D
:1019300060C0823009F492C0C114D10409F499CF77
:101940000E94000096CF80910101909102010097C2
:1019500031F001979093020180930101E1CFD09380
:101960006801DECF0E943A0683FF03C082E08093C5
:1019700068010E943A0682FFD3CFB0920201A09282
:10198000010110926801CCCF109169010E943A06C2
:1019900020910B0130910C0180910A01612F70E0C0
:1019A0008C9F600D711D1124C9010E94550D892B5A
:1019B00049F48091090190910801891750F48F5FD3
:1019C000809309012F5F3F4F30930C0120930B014F
:1019D000A7CF10920901F6CF13FD03C083FDD0936A
:1019E000680112FD9DCF82FF9BCF82E0809368014A
:1019F00097CF64E37AEA82E00E9470060E945E0656
:101A0000982E0E945806992009F496CF10E026E3FC
:101A10003AEA42E0882309F48FCF682F892D0E948B
:101A200078048ACF033008F087CFF0926701E09204
:101A30006601F0926501E09264014DE050E063E4DC
:101A400071E082ED95E00E940D0642E050E061E514
:101A500071E082ED95E00E940D066ECF6092050167
:101A60007092060180920701109203011092040106
:101A7000509208014090090160EB72E482E00E94FC
:101A800070060E945E06982E0E945806992009F45E
:101A900053CF882309F450CF10E04C9E000D111D48
:101AA000112422EB32E442E0B8CF97FB072E16F464
:101AB000009407D077FD09D00E94690D07FC05D07E
:101AC0003EF4909581959F4F0895709561957F4F55
:101AD0000895AA1BBB1B51E107C0AA1FBB1FA61775
:101AE000B70710F0A61BB70B881F991F5A95A9F7C7
:101AF00080959095BC01CD010895EE0FFF1F0590D4
:101B0000F491E02D0994F894FFCF014B002000B030
:101B1000420207000200000100000100FFFFFFFF7A
:101B200000E100000000000000C180810000000012
:101B3000000000EA049B060B05000551050F052D6A
:101B4000050000000036070D060C080B0842616E08
:0E1B5000616E6120526561706572000D0A00C1
:1074000080E189BD82E189BD09B400FEFDCF089508
:10741000D5D569F08091E9008F931092E900AAD444
:1074200083FF01C029D58F9187708093E90008956B
:107430008EEF0090E10008220092E1000895F20131
:10744000F999FECFF2BDE1BD0895F9DFF89A80B554
:1074500008C0F5DF1FBA80BD0FB6F894FA9AF99A02
:107460000FBE31962F010895E0E0F0E085919491F0
:107470000196089572985F9A8BEA34D01092890031
:107480008AEF8093880082E080936F0083E080938E
:107490008100EFE6F7E785913AD0EB37E1F781E03D
:1074A0008093D7008AE482BF1092D8001092E20045
:1074B0001092DA001092E10080E808D019BC1EBAE0
:1074C0001092E0006DD489E05ED481E98093D80009
:1074D0000895A3E6B1E090E81AD08D939A95E1F76C
:1074E000089586E008D010C083E005D08F2F0FD01C
:1074F0008E2F0DD080E05E9A729809C005D085E08D
:10750000FADF05D080FDFDCF729A5E9808958EBD9A
:107510008DB587FFFDCF8EB508958FE08221E9F705
:10752000F3DFE3E6F6E090EB5C98892FF0DF80E193
:10753000EEDF5C9A8191EBDF83E68E278F77D1F7C0
:107540009395983B89F70895E3E6F1E097FC36C000
:1075500094FC4DC092FE089596849920D1F3F8943E
:10756000C089D78520E030E080E090E4AFEFBFEF46
:10757000119689199040E0F72D01BD4F8D0127FD2F
:1075800013C0E0E0F8E011928EE7819392E4E117F6
:1075900091939AE508F092E4E334C9F7819310825D
:1075A000BFDFFE012196A0DF94DFF9010AD5205844
:1075B0003F4F040D151D9A9411F71BC28301282D0E
:1075C00060906C0170906B0143D019F48823C1F76F
:1075D0000895380188243CD0C9F580916A0182174A
:1075E00009F4830160906E0170906D01F4CF80E129
:1075F000982E60906E0170906D012AD059F4882306
:10760000B1F708959FEF95FC03C096FE089591E0B1
:1076100097FB890E662477248301222719D0B1F4C1
:107620008823A1F380916A0136F0881650F48217FE
:1076300030F0213003C0881520F4281710F483019E
:10764000282F60906E0170906D01E8CF3801822E76
:10765000F3014ADF3EDFC3E6D1E0E8E6F7E7099051
:107660008591081621F4EF36D1F7088080104CCFB1
:10767000C9E031DFCA95E9F7D0E195FC1FC094FC61
:1076800038C096FC01C051C0C3E6D2E0E3E6F6E0A4
:1076900098E088E78E0F00840192E817E1F7884FA1
:1076A00009900192E817E1F7C858DF4F9A9589F7DA
:1076B00034DFC85FD340C33E49F749C0C3E6D6E0D4
:1076C000EBE5FAE098E08E2F885702900086E817E5
:1076D000E1F738960A900292E817E1F73897C85711
:1076E000D0409A9581F719DFC850DC4FC33E41F76F
:1076F0002EC0A3EEB6E0E3E6F6E09AE0C6E00D9019
:1077000080818025807F802582958193A336B9076B
:1077100009F4B2E0E336F90709F4F2E0E336FC07D6
:1077200071F7FBDEDA9529F712C0A3EEB9E0E3E6C4
:10773000FAE092E00E90829180258F7080258295EC
:107740008083E336F907B1F7E8DEDA9571F7882729
:10775000089580E880BF8DEA8093640089E9809372
:10776000650085E083BF889541524455424F59D505
:10777000F08D14A1C881CFD9F1AF000000FFFFCF79
:10778000CFFFFFFFFFCFCFFFFF0000FE067E7E068C
:10779000FE46565616FE0656461EFE3F61E9E3FFBC
:1077A000E3EBE3FFE3EBE3FFE16B3F0012011001CA
:1077B0000200000841233600010000000001090218
:1077C0003E000201008032090400000102020100B3
:1077D0000524001001042402040524060001070505
:1077E00082030800FF09040100020A0000000705E7
:0C77F000040210000107058302100001D4
:1078000011241FBE04B714BE88E18093600010925B
:1078100060008EEF9AE09EBF8DBF222433242101A9
:107820003101410180E88AC00F928F939F931F928C
:107830000FB60F9211244F936F938091DA0080FF5F
:1078400037C023C00F920FB68F939F93EF93FF9390
:1078500088278093850080938400E0E5F1E09281A1
:10786000907261F490818917980B908309F45D9A66
:1078700091818917980B918309F4289A239411F424
:107880008315381EFF91EF9154C08091D80080FF7E
:107890000FC08091DA008E7F8093DA008091D9004A
:1078A00080FF04C0ADDD81E08EBB02C019BC1EBAF2
:1078B0008091E10080FF0BC060D280FF08C060D2E1
:1078C0008091D800806202DE19BC85E08EBB809179
:1078D000E10084FF1AC051D284FF17C091DD80916E
:1078E000D8008F7DF3DD8FEEA4DD47D28F7E8160DF
:1078F0004AD280915301882331F48091E30087FDBF
:1079000002C081E001C084E08EBB8091E10083FF72
:107910000CC033D283FF09C087EF8BDD82E08EBBC2
:107920001092530185DD2CD23BD26F914F910F9075
:107930001F909F918F910FBE0F90189580936100BB
:1079400010926100B1E0B5BF82E085BF81EF85B9DB
:1079500087EE84B984E08DB984E48EB910BA83EFE0
:1079600081BB80E68BB980EF8AB980E58CBDBDBD57
:10797000A0E0ECEAF7E705900D92A035E1F78C91D5
:107980001D92BB30E1F7893B11F4ACDDE2CE000083
:1079900004C07C9B02C068DD61F56CDD789458DE24
:1079A00071F0ABE9B7E0EBE7F7E790E105900D92F6
:1079B0009A95E1F7A059BF4FEB3AB9F7B2DD56D02F
:1079C00027DD80915201807881F48FB18095807F8E
:1079D00066991C9B8460982E15DE89EB8825809320
:1079E000FF0A8110B1DD92FC02C0332042F73CDD7A
:1079F00031F3F89489EB76DD81E08093E00010921A
:107A00006F0010928100109285001092840081E036
:107A100085BF15BE2E9A2F9A2D9A5D9A289A0C949E
:107A20000000A6D107C057D102C0C8D239F0A2D1F8
:107A300082FFFBCF85FFF7CF8091F1000895082EDC
:107A400083E097D185FD07C08CD102C0B7D269F021
:107A500091D180FFFBCF0092F100809152018072A2
:107A600021F45D9884E680935001089581D182FFCE
:107A700034C180915201807221F4289884E6809369
:107A80005101CFDF182F853431F422248EE7382EB0
:107A9000D6DC8DE00BC1843511F4C3DFFACF8C3412
:107AA000C1F38035B1F3843721F484E4C8DF80E08A
:107AB000FDC0813611F489E5F9C0813429F4B1DFC4
:107AC000582EAFDF482EE5CF803711F483E5EEC0A6
:107AD000833539F4E8E6F7E78591B1DFEF36E1F772
:107AE000E6C0863521F482E3AADF80E3DFC0863773
:107AF00061F481E3669B8E5F1C9B8F5FA0DF8FB17B
:107B0000809582958F708F5BD1C08837A9F489DF0B
:107B100080935201289A84FD28985D9A83FD5D9890
:107B20002E9A81FD2E982F9A82FD2F982D9A80FDF6
:107B30002D9887FD8824ADCF8A3649F48FE9DBDCA8
:107B4000C3E0E5DC7CDFCA95E1F7DEDCB0C083375B
:107B500031F487E874DF85E972DF8EE1A7C08536EE
:107B600039F4E0E8F3E740D2E058F040E0F791CF95
:107B7000823631F489E563DF80E061DF80E896C01A
:107B8000823419F0873609F07DC033244ADFD82FBC
:107B900048DFC82F46DF082F8354843008F085C0A3
:107BA000063411F4440C551CF20110926F00173684
:107BB000B9F4033489F483E098DCA9DC8EB51EBCEB
:107BC0003EDF0DB42197D1F79FDC08C0063411F4D5
:107BD000859101C03ADC33DF2197C2F72F014AC0FB
:107BE0000334A9F4E11104C07CDC88ED7EDC86DC82
:107BF00078DC82E07ADC15DF0DB48EBDCA95D9F74A
:107C0000319686DC7BDCDA9569F72F0131C00634CA
:107C1000F1F49F01F437D8F4E7D119C002DF06343C
:107C200061F4C0FB46F0F43728F4182E81E087BFDA
:107C3000E89511243296082E0AC0043439F4DF0185
:107C4000B370AD59B94F8D93319601C002DC2197C5
:107C50002AF7043431F42F01F370FE2B49F461DC70
:107C600007C0063429F42F01F901F43708F4BAD11A
:107C70008DE0E5DE063411F45694479482E080935B
:107C80006F0015C08237E1E049F08634E0E031F062
:107C90008E34E3E019F0813531F4E2E0F0E089E080
:107CA00087BF849103C08B3111F08FE3C8DE83E07E
:107CB000BCDB57D095FF03C009C080D171F05AD00A
:107CC00080FFFBCF4ED002C079D139F053D080FF76
:107CD000FBCF84E0AADB8BE745C00895E4E5F1E043
:107CE00067E090915B0180915C01913231F0913AB3
:107CF000F1F58132E1F560D183C0823281F4819166
:107D0000805B8191844099F580915D0180FD2FC059
:107D1000F89481E08093E0001092FF0A71CD8032E8
:107D200031F54AD14BD1E9F08530D9F023D083FD2C
:107D300018C082FFF7CF04C07FDE8193615031F01D
:107D40009091F3008091F200892BB1F7C4DF6115A7
:107D500049F704C033D129F0853019F00BD080FFEA
:107D6000F9CF8EE79091E80089238093E800089589
:107D700084E05BDB8091E80008958091E200089543
:107D8000FCDF8E7F80618093E200089582E061ECE9
:107D900009D083E061E802D084E060E842E103C0FA
:107DA00080E060E042E041DB81E007D01092ED002E
:107DB0006093EC004093ED0008959091EB00892BC7
:107DC0008093EB00089560E0923029F0913029F41F
:107DD000E0E062E102C0E2E16EE3F1E0089580914B
:107DE0005B0188234CF402C0E9D0C1F3C3DF82FFFA
:107DF000FBCF71CFE3D091F3BDDF80FFFBCFB1CFDD
:107E000040916101509162014617510520F0462FC3
:107E1000611509F4A6DF50E022C0D0D061F18530B1
:107E200051F1A8DF83FD57CFA5DF82FD21C080FF80
:107E300016C03091F3002091F20006C0819180932A
:107E4000F10041502F5F3F4F411519F028303105A7
:107E5000A8F350E02830310509F451E082DF4115E4
:107E6000E1F65523D1F604C0A9D029F0853019F0E8
:107E700081DF82FFF9CF2FCFEBE5F1E0DDDD8193EC
:107E8000E336E1F72BDF76DF83FF91C080915B0162
:107E900090915C01913009F170F09330F1F09530E0
:107EA00009F444C0963009F456C0983009F460C013
:107EB000993059F767C0823841F780915F01B4DA91
:107EC0002091EB001092E90077D022952695217041
:107ED0002093F1001092F10052C0882311F08230FB
:107EE000A1F68F71823089F680915D018823D1F4EB
:107EF00020915F01277049F22093E9008091EB0007
:107F000080FF10C0933011F480E20BC080E155DF98
:107F100081E0880F2A95E9F78093EA001092EA0041
:107F200088E04BDF1092E90047D02AC0882391F403
:107F300010915D0110680FB7F8943ED050DF1ADF42
:107F400080FFFDCF1093E300103883E009F482E056
:107F50008EBB0FBF2CC08058823048F580915D01E8
:107F600090915E0130DF603011F126D049DF1FC0F3
:107F70008038E9F421D0809153018093F100F1DE43
:107F80002EDF15C0882399F490915D01923078F42A
:107F90009093530111D023DF80915301882321F462
:107FA0008091E30091E087FD94E09EBBEFDEE2DE8E
:107FB00083FF089580E201DF87EFD4CE8EB388235C
:107FC0000895A3E6B1E0F437B8F40ED090E40D9034
:107FD0001D9081E087BFE89532969A95C1F71124EC
:107FE000E058F04085E001C083E001D081E187BF27
:107FF000E89507B600FCFDCF08953230E4CFFBDCF6
:00000001FF
